:100000000C94A9230C941BDF0C9446DF0C9471DF35
:100010000C949CDF0C94C7DF0C94F2DF0C941DE071
:100020000C9448E00C94DA230C94DA230C94DA2331
:100030000C94A5610C9492630C94DA230C94DA234B
:100040000C94DA230C94FB610C94DA230C94DA23DD
:100050000C94DA230C94DA230C94DA230C94F5D262
:100060000C94DA230C9442CF0C947CCF0C94DA23BA
:100070000C94DA230C94DA230C94DA230C94DA230C
:100080000C94DA230C94DA230C94DA230C94DA23FC
:100090000C94D2CF0C940CD00C94DA230C9418E46A
:1000A0000C94DA230C94DA230C94DA230C94DA23DC
:1000B0000C94DA230C94DA230C94DA230C94DA23CC
:1000C0000C94DA230C94DA230C94DA230C94DA23BC
:1000D0000C94DA230C94DA230C94DA230C94DA23AC
:1000E0000C94DA232F322F3265322F324D322F32D9
:1000F0004D322F322F324D322F324D323C323E3282
:100100004132433241324532413247324932413243
:100110004B322333253327332E33303332333433CA
:10012000363338333A333C333F334B334F33533327
:100130005C336033643368336C33703374337833D7
:100140007C336F345035A7349735C834B935EA3429
:100150000C35DB352E35FB35473480364537A03638
:100160008A37C136AB37E2360337CC372437EC3722
:100170004A363439F4395439373A7439573A94395C
:10018000B439773AD439963A0C391C3BD63B3B3BD1
:10019000173C5A3B363C793B983B553CB73B7B3C44
:1001A000FF3ABF45AD45BF45BC45BF45BC45BF4512
:1001B000BF45BC45BF45BC45BF4578667E66876682
:1001C0009466A366B066BD66CB66D266DD66D490E3
:1001D000CA90E890DB90D890A090C2909590459AF4
:1001E0004E9B6B9B859BB89BD09BE79BFC9B32D423
:1001F00035D424D428D42ED46CD439D43DD443D48B
:1002000047D44BD451D455D459D46CD45FD463D48F
:1002100067D496DD83DD85DD87DD89DD8BDD8DDDD2
:100220008FDDF5DEBFDEC7DED3DEE0DE01DF0EDF11
:1002300007634236B79BD8A71A39685618AEBAABCF
:10024000558C1D3CB7CC5763BD6DEDFD753EF61763
:100250007231BF000000803F08000000BE922449B8
:10026000123EABAAAA2ABECDCCCC4C3E00000080E8
:10027000BEABAAAAAA3E00000000BF000000803F5B
:100280000000000000084178D3BB4387D1133D191B
:100290000E3CC3BD4282AD2B3E68EC8276BED98F48
:1002A000E1A93E4C80EFFFBE01C4FF7F3F0000008C
:1002B0000000466C7573685F52756E6E696E6720DC
:1002C000363A2000466C7573685F52756E6E696EC3
:1002D0006720333A2000466C7573685F52756E6E06
:1002E000696E6720323A2000466C7573685F5275FC
:1002F0006E6E696E6720303A2000416C6C2076612A
:100300006C766573207375636365737366756C6C67
:1003100079204F4E2F4F4646004575726F20466537
:1003200065646261636B206661696C2F4E6F742037
:10033000726563656976656420616E7920646174B5
:10034000612066726F6D204575726F2076616C76E4
:10035000652030004575726F204665656462616393
:100360006B206661696C2F4E6F74207265636569DE
:1003700076656420616E7920646174612066726FB5
:100380006D204575726F2076616C76652031004571
:1003900075726F20466565646261636B2066616992
:1003A0006C004944204E6F74206D6174636865640D
:1003B00020776974682076616C7665207768696358
:1003C00068206973207265706C6965640045757298
:1003D0006F2076616C766520494420776869636890
:1003E0002069732053656E74203A004575726F2042
:1003F00076616C76652072782064617461203A20A1
:100400000053656E64204F6E2F6F666620436F6DDC
:100410006D616E6420746F204555524F2076616C7B
:10042000766520310043757272656E742076616C5A
:100430007665206E756D6265722000576972656C15
:100440006573732056616C7665206E6F2E200049AF
:10045000727269676174696E6720706C6F74206E68
:100460006F203A2000200076616C7665206C6973FD
:1004700074203A2000416C6C2076616C76657320A4
:100480007375636365737366756C6C79204F4E2F5B
:100490004F4646004575726F20466565646261632C
:1004A0006B206661696C2F4E6F742072656365699D
:1004B00076656420616E7920646174612066726F74
:1004C0006D204575726F2076616C76652030004531
:1004D00075726F20466565646261636B2066616951
:1004E0006C2F4E6F74207265636569766564206158
:1004F0006E7920646174612066726F6D204575723B
:100500006F2076616C76652031005F6549525249F3
:10051000475F535441545F4555524F5F46454544EC
:100520004241434B2031004575726F20466565643A
:100530006261636B206661696C005F654952524974
:10054000475F535441545F4555524F5F46454544BC
:100550004241434B2030004944204E6F74206D616E
:10056000746368656420776974682076616C766569
:10057000207768696368206973207265706C6965AB
:1005800064004575726F2076616C76652049442061
:1005900077686963682069732053656E74203A0038
:1005A0004575726F2076616C766520727820646183
:1005B0007461203A200053656E64204F6E2F6F6681
:1005C0006620436F6D6D616E6420746F20455552D7
:1005D0004F2076616C766520310043757272656ECE
:1005E000742076616C7665206E756D626572200090
:1005F000576972656C6573732056616C7665206E01
:100600006F2E20005461726765745F506C6F745F69
:100610004E756D20706C6F74206E6F203A20002034
:100620000076616C7665206C697374203A200076E0
:10063000616C7665206661696C20746F20676976ED
:100640006520666565646261636B284E6F74206C1B
:10065000697374656E696E67292E2E2E0076616C43
:100660007665206964206E6F74206D6174636828FC
:100670006265666F726520737461727474290066B6
:1006800061696C20746F206F6666207468652076DF
:10069000616C7665287761732065616C696572208D
:1006A0006F6E6E290054657374206F6E6C792054E0
:1006B000582064617461203A200053656E64204FB5
:1006C0006E2F6F666620436F6D6D616E6420746F70
:1006D000204555524F2076616C7665203B0043687B
:1006E00065636B2076616C76652074686174206147
:1006F0006C6C2076616C76657320617265204F4664
:1007000046206F72206E6F740076616C766520668D
:1007100061696C20746F206F666620776869636812
:100720002077617320616C7265616479206F6E005F
:1007300076616C7665206964206E6F74206D6174DB
:100740006368286265666F726520737461727429CC
:10075000006661696C20746F206F6666207468653E
:100760002076616C7665287761732065616C6965B8
:1007700072206F6E290054657374206F6E6C79203F
:1007800054582064617461203A200053656E6420DF
:100790004F6E2F6F666620436F6D6D616E642074BF
:1007A0006F204555524F2076616C76652000436876
:1007B00065636B2076616C76652074686174206176
:1007C0006C6C2076616C76657320617265204F4693
:1007D00046206F72206E6F740076616C7665206CB7
:1007E00069737420656E746572200076616C76653D
:1007F000206C697374206973203A200076616C76EE
:1008000065206C69737420656E7465722000766172
:100810006C7665206C697374206973203A200077C8
:100820006972656C6573732070756D70203520007A
:10083000776972656C6573732070756D70203320F5
:1008400000776972656C6573732070756D70203503
:100850002000776972656C6573732070756D702008
:10086000342023232323232323232323232323234A
:100870002323232323232323232323230077697282
:10088000656C6573732070756D7020332E2E2E2E5F
:100890002E2E2E2E2E2E2E2E2E2E2E2E2E2E2E2E78
:1008A0002C2C2C2C2C2C2C200053656C656374652F
:1008B0006420776972656C6573732070756D702044
:1008C0003E200053656C65637465642076616C76C8
:1008D00065206E756D62657220776972656C6573EF
:1008E000732070756D70203E2000747269676765B3
:1008F000722074696D652073657400636865636B4D
:100900005F747275655F636F6E646974696F6E00A2
:100910007363203120656E7465722031322E302E63
:10092000302E34007363203120656E74657220317F
:10093000352E33007363203120656E74657220316B
:10094000352E32007363203120656E74657220315C
:10095000352E31007363203120656E74657220314D
:1009600035007363203120656E7465722031340068
:100970007363203120656E746572203133007363B8
:10098000203120656E74657220313200736320312E
:1009900020656E7465722031322E302E302E32007A
:1009A0007363203120656E7465722031322E302ED3
:1009B000302E31007363203120656E7465722031F2
:1009C000322E3000736320656E74657220323300FE
:1009D000736320656E7465722032320069727269C9
:1009E000676174696E672064617465207570616405
:1009F000746520352E322F2F2F2F2F2F2F2F2F2F93
:100A00002F2F2F2F2F2F2F2F2F2F2F2F2F2F2F2FF6
:100A10002F2F2F2F2F2F2F2F2F2F2F2F2F2F2F2FE6
:100A20002F005F735363686564756C65732E537430
:100A300061727465645F446174652075706164748B
:100A40006520352E312F2F2F2F2F2F2F2F2F2F2F88
:100A50002F2F2F2F2F2F2F2F2F2F2F2F2F2F2F2FA6
:100A60002F2F2F2F2F2F2F2F2F2F2F2F2F2F2F2F96
:100A70000069727269676174696E67206461746588
:100A80002075706164746520352F2F2F2F2F2F2F25
:100A90002F2F2F2F2F2F2F2F2F2F2F2F2F2F2F2F66
:100AA0002F2F2F2F2F2F2F2F2F2F2F2F2F2F2F2F56
:100AB0002F2F2F2F005F735363686564756C657308
:100AC0002E537461727465645F446174652075703F
:100AD0006164746520342E312F2F2F2F2F2F2F2F4D
:100AE0002F2F2F2F2F2F2F2F2F2F2F2F2F2F2F2F16
:100AF0002F2F2F2F2F2F2F2F2F2F2F2F2F2F2F2F06
:100B00002F2F2F005F735363686564756C65732EB8
:100B1000537461727465645F4461746520757061BB
:100B200064746520342F2F2F2F2F2F2F2F2F2F2F2F
:100B30002F2F2F2F2F2F2F2F2F2F2F2F2F2F2F2FC5
:100B40002F2F2F2F2F2F2F2F2F2F2F2F2F2F2F2FB5
:100B500000736320656E7465722033302E312E3140
:100B600000736320656E7465722031312E322E3031
:100B70002E3200736320656E7465722031312E3120
:100B80002E302E3100736320656E74657220313112
:100B90002E312E302E302E300069727269676174EA
:100BA000696E672064617465207570616474652086
:100BB000352F2F2F2F2F2F2F2F2F2F2F2F2F2F2F3F
:100BC0002F2F2F2F2F2F2F2F2F2F2F2F2F2F2F2F35
:100BD0002F2F2F2F2F2F2F2F2F2F2F2F005F7353BC
:100BE00063686564756C65732E53746172746564B3
:100BF0005F446174652075706164746520342F2FC3
:100C00002F2F2F2F2F2F2F2F2F2F2F2F2F2F2F2FF4
:100C10002F2F2F2F2F2F2F2F2F2F2F2F2F2F2F2FE4
:100C20002F2F2F2F2F2F2F2F2F00646961797320E3
:100C3000696E2062657465776565656E202E2E2E5F
:100C40002E2E2E2E2E2E2E2E2E2E3A200043757254
:100C500072656E74206461746520323A20004375B9
:100C60007272656E74206461746520313A200044AC
:100C70006F5F4E6F745F5265706561745F53636838
:100C80006564756C652032202323232323232323CB
:100C90002323232323232323232323232323232324
:100CA00023232323232300446F5F4E6F745F526519
:100CB000706561745F5363686564756C6520312E7F
:100CC00031202323232323232323232323232323E9
:100CD00023232323232323232323232323232323E4
:100CE00000446F5F4E6F745F5265706561745F534F
:100CF00063686564756C65203120232323232323D7
:100D000023232323232323232323232323232323B3
:100D100023232323232323230069727269676174C9
:100D2000696E672064617465207570616474652004
:100D300031342F2F2F2F2F2F2F2F2F2F2F2F2F2FBC
:100D40002F2F2F2F2F2F2F2F2F2F2F2F2F2F2F2FB3
:100D50002F2F2F2F2F2F2F2F2F2F2F2F2F006D794A
:100D6000203134005F735363686564756C65732E5E
:100D700046697273745F5363686564756C655F4937
:100D800072726967617465645F4461746520342FB1
:100D90002F2F2F203A006D792039006D79203800EF
:100DA0006D792037005F735363686564756C657394
:100DB0002E46697273745F5363686564756C655F12
:100DC0004972726967617465645F4461746520315A
:100DD0002F2F2F2F203A006D7920362E32006D797B
:100DE00020362E31006D792036006D792035005F78
:100DF000735363686564756C65732E4669727374AA
:100E00005F5363686564756C655F49727269676199
:100E10007465645F4461746520332F2F2F2F203A4F
:100E2000006D792034006D792033004261636B20BE
:100E30007570207363686564756C65203A0052753F
:100E40006E6E696E67207363686564756C65203AC1
:100E5000006D792032006D792031006D79203000ED
:100E600069727269676174696E6720646174652074
:100E70007570616474652031342F2F2F2F2F2F2F21
:100E80002F2F2F2F2F2F2F2F2F2F2F2F2F2F2F2F72
:100E90002F2F2F2F2F2F2F2F2F2F2F2F2F2F2F2F62
:100EA0002F2F2F2F0052756E6E696E67206C69733D
:100EB00074206D6F6E7468200052756E6E696E6777
:100EC000206C697374206461746520006D79203131
:100ED0003400626C6F776572206765747320322E00
:100EE00031203A2000626C6F7765722067657473F9
:100EF00020312E31203A200074616E6B206E756DAA
:100F0000626572206765747320746F206F66662057
:100F1000736166656C790074616E6B206E756D62CD
:100F20006572206C69737400416C6C2076616C761C
:100F30006573207375636365737366756C6C792074
:100F40004F4E2F4F4646004575726F2046656564CB
:100F50006261636B206661696C2F4E6F74207265ED
:100F600063656976656420616E79206461746120CF
:100F700066726F6D204575726F2076616C766520A4
:100F800030004575726F20466565646261636B2051
:100F90006661696C2F4E6F74207265636569766552
:100FA0006420616E7920646174612066726F6D20C7
:100FB0004575726F2076616C7665203100457572DB
:100FC0006F20466565646261636B206661696C00D1
:100FD0004944204E6F74206D6174636865642077A6
:100FE0006974682076616C7665207768696368202B
:100FF0006973207265706C696564004575726F2055
:1010000076616C7665204944207768696368206959
:10101000732053656E74203A004575726F207661B7
:101020006C76652072782064617461203A200053E8
:10103000656E64204F6E2F6F666620436F6D6D6125
:101040006E6420746F204555524F2076616C766532
:1010500020310043757272656E742076616C76651E
:10106000206E756D6265722000576972656C6573DC
:10107000732056616C7665206E6F2E200020006410
:101080006F7365722070756D702076616C76652067
:101090006C697374203A200074616E6B20746F2049
:1010A00073656E64207363686564756C65204F4E6C
:1010B000203A200074616E6B20746F2073656E643B
:1010C000207363686564756C65204F666620312007
:1010D0003A200074616E6B20746F2073656E64201B
:1010E0007363686564756C65204F66662030203ACE
:1010F0002000416C6C2076616C766573207375639B
:101100006365737366756C6C79204F4E2F4F46463E
:10111000004575726F20466565646261636B206689
:1011200061696C2F4E6F74207265636569766564C2
:1011300020616E7920646174612066726F6D204554
:1011400075726F2076616C76652030004575726F20
:1011500020466565646261636B206661696C2F4E31
:101160006F7420726563656976656420616E7920AD
:10117000646174612066726F6D204575726F2076B0
:10118000616C76652031004575726F204665656437
:101190006261636B206661696C004944204E6F7424
:1011A000206D617463686564207769746820766176
:1011B0006C76652077686963682069732072657052
:1011C0006C696564004575726F2076616C76652088
:1011D00049442077686963682069732053656E7499
:1011E000203A004575726F2076616C7665207278C2
:1011F0002064617461203A200053656E64204F6E54
:101200002F6F666620436F6D6D616E6420746F2072
:101210004555524F2076616C7665203100437572DA
:1012200072656E742076616C7665206E756D626590
:10123000722000576972656C6573732056616C7615
:1012400065206E6F2E2000200066657274696C69DF
:101250007A65722074616E6B2076616C7665206CA5
:10126000697374203A200066657274696C697A65E6
:10127000722074616E6B206E756D626572203A200B
:101280000066657274696C697A65722074616E6B50
:10129000206E756D626572206973206C65737320B2
:1012A0007468616E20313030203A200046657274D7
:1012B000696C697A65725F54616E6B5F4D6F6E69C0
:1012C000746F72696E672031203A2000466572742F
:1012D000696C697A65725F54616E6B5F4D6F6E69A0
:1012E000746F72696E67203A2000736320656E74B4
:1012F00065722035392E31005363686564756C65FD
:10130000722067657473206F6666203131203A2041
:1013100000736320656E746572203632007363203B
:10132000656E74657220363100736320656E746576
:101330007220363000736320656E74657220353913
:1013400000736320656E7465722035380073632006
:10135000656E74657220353500736320656E746543
:101360007220353000736320656E746572203439E5
:1013700000736320656E74657220343400736320DB
:10138000656E74657220333900736320656E746511
:101390007220333800736320656E746572203337B2
:1013A00000736320656E74657220333200736320AE
:1013B000656E74657220323700736320656E7465E4
:1013C0007220323600736320656E74657220313787
:1013D00000736320656E746572203136007363207C
:1013E000656E74657220372E3100736320656E74EC
:1013F000657220362E312E2E2E2E2E2E2E2E2E2E95
:101400002E2E2E2E2E2E2E2E2E2E2E2E2E2E2E2EFC
:1014100000736320656E74657220362E302E2E2E7A
:101420002E2E2E2E2E2E2E2E2E2E2E2E2E2E2E2EDC
:101430002E2E2E2E2E2E2E00736320656E74657256
:101440002031312E322E3100736320656E74657247
:101450002031312E3200736320656E746572203145
:10146000312E31005F735363686564756C65732E4C
:1014700046697273745F5363686564756C655F4930
:1014800072726967617465645F4461746520322FAC
:101490002F2F2F203A00736320656E746572203100
:1014A0003100736320656E746572203130007363A0
:1014B00020656E746572203900736320656E7465F3
:1014C0007220382E2E2E2E2E2E2E2E2E2E2E2E2EFC
:1014D0002E2E2E2E2E2E2E2E2E2E2E2E2E2E007315
:1014E0006320656E74657220372E2E2E2E2E2E2EC2
:1014F0002E2E2E2E2E2E2E2E2E2E2E2E2E2E2E2E0C
:101500002E2E2E2E2E2E2E00736320656E74657285
:1015100020362E2E2E2E2E2E2E2E2E2E2E2E2E2EF1
:101520002E2E2E2E2E00736320656E74657220356C
:101530002E2E2E2E2E2E2E2E2E2E2E2E2E2E2E2ECB
:101540002E2E2E00736320656E74657220342E2E4D
:101550002E2E2E2E2E2E2E2E2E2E2E2E2E2E2E2EAB
:10156000005F735363686564756C65732E466972BA
:1015700073745F5363686564756C655F4972726903
:1015800067617465645F4461746520302F2F2F2F6D
:10159000203A00736320656E746572203131005FFC
:1015A000735363686564756C65732E4669727374F2
:1015B0005F5363686564756C655F497272696761E2
:1015C0007465645F4461746520302E302E302F2F97
:1015D0002F2F203A005F735363686564756C6573E1
:1015E0002E46697273745F5363686564756C655FDA
:1015F0004972726967617465645F44617465203023
:101600002E302F2F2F2F203A005F735363686564AD
:10161000756C65732E46697273745F536368656495
:10162000756C655F4972726967617465645F446176
:10163000746520302E2F2F2F2F203A0064617920DF
:10164000696E206274772031312E31006461792017
:10165000696E206274772031302E31006461792008
:10166000696E2062747720392E31006461792069B7
:101670006E2062747720382E310064617920696EA3
:101680002062747720392E310064617920696E20E0
:1016900062747720380064617920696E2062747703
:1016A00020392E310064617920696E2062747720C0
:1016B000380064617920696E2062747720392E3198
:1016C0000064617920696E2062747720382E3100C1
:1016D00064617920696E2062747720372E3100644E
:1016E000617920696E2062747720362E3100646142
:1016F0007920696E2062747720352E31006461791B
:1017000020696E2062747720342E31006461792064
:10171000696E2062747720332E310064617920690C
:101720006E2062747720322E310064617920696EF8
:101730002062747720332E310064617920696E2035
:1017400062747720322E310064617920696E2062E4
:10175000747720332E310064617920696E206274C1
:101760007720322E310064617920696E20627477AF
:1017700020332E310064617920696E2062747720F5
:10178000322E310064617920696E206274772033D3
:101790002E310064617920696E2062747720322EC8
:1017A000310064617920696E2062747720332E31B4
:1017B0000064617920696E2062747720322E3100D6
:1017C00064617920696E2062747720332E31006461
:1017D000617920696E2062747720322E3100646155
:1017E0007920696E2062747720312E31004E6F208F
:1017F0006F66206461797320696E206265742031A0
:101800003A200064617920696E206274772031315A
:101810000064617920696E20627477203130006441
:10182000617920696E2062747720390064617920C3
:10183000696E2062747720380064617920696E20B7
:1018400062747720390064617920696E2062747750
:1018500020380064617920696E2062747720390035
:1018600064617920696E2062747720380064617940
:1018700020696E2062747720390064617920696E76
:101880002062747720380064617920696E20627468
:101890007720370064617920696E20627477203682
:1018A0000064617920696E2062747720350064617C
:1018B0007920696E20627477203400646179206930
:1018C0006E2062747720330064617920696E206233
:1018D000747720320064617920696E206274772009
:1018E000330064617920696E20627477203200646D
:1018F000617920696E2062747720330064617920F9
:10190000696E2062747720320064617920696E20EC
:1019100062747720330064617920696E2062747785
:1019200020320064617920696E2062747720330070
:1019300064617920696E2062747720320064617975
:1019400020696E2062747720330064617920696EAB
:101950002062747720320064617920696E2062749D
:101960007720330064617920696E206274772032B9
:101970000064617920696E206274772031004E6FB7
:10198000206F66206461797320696E20626574201F
:101990003A200064617920696E2062747720737444
:1019A0006172746564006C617374206D6F6E74682D
:1019B000203A20006C61737420646174653A2000E1
:1019C00079656172203A20006D6F6E7468203A204C
:1019D0000064617465203A20004461797320696E67
:1019E000206265747765656E203A20006461792015
:1019F000696E206274772031310064617920696EEC
:101A0000206274772031300064617920696E206231
:101A1000747720390064617920696E2062747720C0
:101A2000380064617920696E20627477203900641F
:101A3000617920696E2062747720380064617920B2
:101A4000696E2062747720390064617920696E20A4
:101A500062747720380064617920696E206274773F
:101A600020390064617920696E2062747720380023
:101A700064617920696E206274772037006461792F
:101A800020696E2062747720360064617920696E67
:101A90002062747720350064617920696E20627459
:101AA0007720340064617920696E20627477203376
:101AB0000064617920696E2062747720320064616D
:101AC0007920696E2062747720330064617920691F
:101AD0006E2062747720320064617920696E206222
:101AE000747720330064617920696E2062747720F6
:101AF000320064617920696E20627477203300645B
:101B0000617920696E2062747720320064617920E7
:101B1000696E2062747720330064617920696E20D9
:101B200062747720320064617920696E2062747774
:101B300020330064617920696E206274772032005E
:101B400064617920696E2062747720330064617962
:101B500020696E2062747720320064617920696E9A
:101B60002062747720310064617920696E2062748C
:101B7000772031310064617920696E2062747720AA
:101B800031300064617920696E20627477203900F9
:101B900064617920696E206274772038006461790D
:101BA00020696E2062747720390064617920696E43
:101BB0002062747720380064617920696E20627435
:101BC0007720390064617920696E2062747720384B
:101BD0000064617920696E20627477203900646145
:101BE0007920696E206274772038006461792069F9
:101BF0006E2062747720370064617920696E2062FC
:101C0000747720360064617920696E2062747720D1
:101C1000350064617920696E206274772034006435
:101C2000617920696E2062747720330064617920C5
:101C3000696E2062747720320064617920696E20B9
:101C400062747720330064617920696E2062747752
:101C500020320064617920696E206274772033003D
:101C600064617920696E2062747720320064617942
:101C700020696E2062747720330064617920696E78
:101C80002062747720320064617920696E2062746A
:101C90007720330064617920696E20627477203286
:101CA0000064617920696E2062747720330064617A
:101CB0007920696E2062747720320064617920692E
:101CC0006E2062747720330064617920696E20622F
:101CD000747720320064617920696E206274772005
:101CE000310069727269676174696E67206D6F6E29
:101CF0007468203A200069727269676174696E675E
:101D00002064617465203A200079656172203A2070
:101D1000006D6F6E7468203A200064617465203A2B
:101D200020007363205F735363686564756C65732B
:101D30002E54656D705F4D6F6E7468007363205F25
:101D4000735363686564756C65732E54656D705F5D
:101D500064617465007363206D616B6520646174F8
:101D6000650069727269676174696E672064617485
:101D7000652075706164746520312F2F2F2F2F2FF0
:101D80002F2F2F2F2F2F2F2F2F2F2F2F2F2F2F2F63
:101D90002F2F2F2F2F2F2F2F2F2F2F2F2F2F2F2F53
:101DA0002F2F2F2F2F00574952454C45535320506A
:101DB000554D5020444154412052454349455645D4
:101DC000440041434B302053454E4420544F20564D
:101DD000414C564520005F654555524F5F42415486
:101DE000544552595F4C4F5720312000776C20707A
:101DF000756D70207472696767657220303030309D
:101E000030303030303030303030303030300066CC
:101E10006F676765723A2076616C766520666175DA
:101E20006C74206F636375726520706C6561736597
:101E3000207475726E206F666620746865207075F8
:101E40006D70005F654555524F5F42415454455295
:101E5000595F4C4F5700776C2070756D702074720D
:101E6000696767657220313131313131313131315A
:101E7000313131313131313131310076616C76655A
:101E8000206661756C74206F636375726520706C79
:101E900065617365207475726E206F666620746864
:101EA000652070756D70004555524F205041434B71
:101EB0004554204953204E4F54204150504C4943E3
:101EC00041424C45004575726F207374617475739F
:101ED000203A20004575726F206F6E6C696E652F19
:101EE0006F66666C696E65203A20004261747465A5
:101EF0007279206C6576656C203A200044617461CB
:101F00002072656376642046726F6D204575726F2E
:101F1000203A200064656661756C7420636F6D6D96
:101F2000616E6420006C6F772062617474657279F1
:101F3000206661756C74006E6F7420616E7920701C
:101F40006C6F742069732069727269676174696E5D
:101F500067005F654E4F5F4641554C5420005F65FA
:101F60004555524F5F56414C56455F4641554C547E
:101F70005F44415441004555524F20444154412053
:101F8000524543494556454400415445300041546B
:101F90002B4346554E3D312C31006661696C2074EF
:101FA0006F20636F6E6E6563742067736D2F47508B
:101FB0005253206E6574776F726B00537563637351
:101FC00020436F6E6E656374656420746F204750A4
:101FD0005253206E6574776F726B00415445300028
:101FE00041542B4346554E3D312C31004661696CBE
:101FF00020746F20436F6E6E656374204750525398
:102000000043616E277420676574206F706561728C
:10201000746F72204E616D65006A696F00566F645F
:1020200061666F6E6500436F6E6E656374656420F4
:10203000746F2067736D2F47505253206E6574770D
:102040006F726B2030006D792079656172203A20C3
:10205000006D79206D6F6E7468203A20006D7920D4
:1020600064617465203A200041542B43434C4B3F3C
:102070000041542B434E54500041542B434E545076
:102080003D22696E2E706F6F6C2E6E74702E6F72A3
:1020900067222C323200202050554D50204F4646AA
:1020A00020200020202050554D50204F4E20200051
:1020B00020202020202049525249474154454420A5
:1020C0002020202000204E4F20504C4F54204953B8
:1020D0002047455454494E472000202020202020EE
:1020E0002020202020202020202020202020002010
:1020F00020202020202020202020202020202020E0
:1021000020202000204E4F20504C4F54204144446A
:1021100045442059455421200020202020204D41B5
:102120004E55414C204D4F4445202020200020207A
:1021300020202054494D4552204D4F444520202019
:102140002020002020205343484544554C45522030
:102150004D4F4445202020002020202020202020FA
:102160002020202020202020202020200044415416
:102170004120494E495449414C4953494E4700205A
:10218000202020202020202020202020202020204F
:10219000202020002020202020205448414E4B2089
:1021A000594F5520202020200020202020202020B2
:1021B0002020202020202020202020202000434FED
:1021C0004E4E454354454420544F205345525645A6
:1021D00052200020202020202020202020202020ED
:1021E000202020202020200020204E4554574F52F0
:1021F0004B2053454C45435445442020002020208B
:1022000020202020202020202020202020202020CE
:102210002000534541524348494E4720464F5220E3
:102220004E45542E2E2E002020202020202020201D
:102230002020202020202020202020005245474917
:1022400053544552454420544F205345525645520D
:10225000002020202020202020202020202020209E
:1022600020202020200020202020205245474953B4
:10227000544552494E472020202000202020202075
:10228000202020202020202020202020202020006E
:10229000434F4E4E454354494E4720544F205345DB
:1022A00052564552002020202020504C4541534595
:1022B00020574149542020202000544F50494320AA
:1022C0004D4154434800656E74657220310041549D
:1022D0002B43475245473F0041542B434752454704
:1022E0003D310041542B43475245473F00636865E9
:1022F000636B20436F6E6E656374656420746F203A
:102300006D71747400636865636B20436F6E6E65F6
:102310006374656420746F206D7174740041542B74
:10232000434D515454434F4E4E4543543F00415446
:102330002B434D51545453544152540041542B4358
:102340004D51545452454C3D300041542B434D5156
:102350005454444953433D302C313230005355429C
:1023600020535543434553530041542B4346554E48
:102370003D310021212121215355434345535346EB
:10238000554C4C5920434F4E4E45435445442054E0
:102390004F204750525321212121210041542B43EA
:1023A00053504E3F0041542B43475245473F004155
:1023B000542B43475245473D310041542B4347522C
:1023C00045473F0041542B43475245473D3100416B
:1023D000542B435245473F0041542B435245473D00
:1023E000310041542B435245473F0041542B435247
:1023F00045473D310041542B434E4D503D3338004D
:1024000041542B434D45453D300041540043535109
:10241000205245544555524E2030200041542B4304
:1024200053510053454E5420737563630053454E1A
:10243000542057414954494E47006C6F72612064E3
:102440006174612073656E64206C656E203A2000B3
:1024500047534D204E4F5420494E4954494154450D
:10246000440047534D20494E495449415445440086
:102470004C4F5241204E4F5420494E4954494154EB
:102480004544004C4F524120494E4954494154451E
:10249000440053454E5345204954204F5554002085
:1024A000202020202020202020202020202020202C
:1024B0002020200020204656203A20534B55335FE1
:1024C000312E302E302E33200056414C5645204EB2
:1024D0004F203A2000457874726120506C6F742050
:1024E0004E756D6265722E3A2000646174612073CE
:1024F0006176696E6720696E20656570726F6D2008
:1025000000657874726120706C6F74203A200063EB
:102510006865636B2073696D206D650041542B43C2
:1025200050494E3F00415445300041540041542B26
:102530004350494E3F00415445300041542B4346DF
:10254000554E3D312C3100706861736520697320F0
:102550007468657265200070686173652069732016
:102560006E6F74207468657265200050756D702000
:102570004C696E65204661756C740050756D7020F5
:102580004C696E65204661756C74200050756D70E5
:10259000204472792052756E0050756D702044721F
:1025A000792052756E200050756D70204F766572DF
:1025B0006C616F6465640050756D70204F76657254
:1025C0006C616F6465642000576972656C65737334
:1025D0002050756D70204661756C74206F63757541
:1025E00072652E2E2E2E2E2E2E2E2E2E2E2E2000CC
:1025F00050756D702043616C6962726174696F6EB1
:1026000020697320646F6E650056414C5645204E1C
:102610004F203A20004578747261206E6F7420500C
:102620006C6F742052756E2054696D6572203A206B
:1026300000457874726120506C6F742052756E2062
:1026400054696D6572203A2000457874726120509B
:102650006C6F74204E756D626572203A200047538E
:102660004D20414E44204D5154542057494C4C204C
:102670004E4F5420574F524B004E4F542052454717
:10268000495354455220414E4420414C534F204D14
:102690004F44554C45204E4F5420574F524B2C2001
:1026A000504C4541534520434845434B20544845F1
:1026B000204D4F44554C4520414E442052455354E3
:1026C0004152542054484520444556494345005002
:1026D0006C6561736520496E736572742053696D12
:1026E0002043617264005275626C65206973206ECC
:1026F0006F74205265676973746572656420546FE6
:10270000205365766572005275626C65206973208E
:10271000616C726561647920526567697374657272
:10272000656420546F205365766572005F7353753E
:10273000627363726962655F546F7069632E52756C
:10274000626C655F4575726F5F56616C76655F534D
:102750006574206661696C00415445300041542B1A
:102760004346554E3D312C31004661696C20546F13
:1027700020636F6E6E656374207468652073657284
:1027800076657200616C6C20746F706963206E6F87
:1027900074207375627363726962656400616C6C46
:1027A00020746F7069632073756273637269626508
:1027B0006400436F6E6E656374656420546F2073AC
:1027C00065727665720054727920746F20636F6E43
:1027D0006E65637420746865207365727665720037
:1027E00041542B514D54434C4F5345204E4F542090
:1027F000434C4F5345200041542B514D54434C4FB3
:1028000053450041542B514D54434C4F53453D309B
:102810000053696D206973206E6F7420746865724F
:10282000650053696D206973206E6F74207468654C
:102830007265004154453000415445300041542BED
:102840004346554E3D312C31005275626C65206314
:102850006F6E74726F6C6C6572206973207265673D
:102860006973746572656400776169742072656765
:102870006973746572696E6720737461747573200F
:102880003A20004661696C20746F2050696E6720A1
:102890007365727665720050696E6720746F20737D
:1028A0006572766572004661696C20746F205069AC
:1028B0006E672073657276657220300050696E67AE
:1028C00020746F20736572766572203000446179E0
:1028D0007320696E206265747765656E203A20000A
:1028E0004E4F4D494E414C2043555252454E542077
:1028F0003A2000776C20312070756D7020747269F9
:1029000067676572203535353535353535353535BB
:10291000353535353535353535353500416C6C2037
:1029200076616C7665732073756363657373667522
:102930006C6C79204F4E2F4F4646004575726F20C4
:10294000466565646261636B206661696C2F4E6FDA
:102950007420726563656976656420616E792064B0
:102960006174612066726F6D204575726F207661AB
:102970006C76652030004575726F2046656564622F
:1029800061636B206661696C2F4E6F7420726563A2
:10299000656976656420616E792064617461206682
:1029A000726F6D204575726F2076616C766520318F
:1029B000004575726F20466565646261636B2066D1
:1029C00061696C004944204E6F74206D61746368C6
:1029D000656420776974682076616C766520776815
:1029E000696368206973207265706C69656400456D
:1029F00075726F2076616C7665204944207768692E
:102A000063682069732053656E74203A00457572BF
:102A10006F2076616C766520727820646174612025
:102A20003A200053656E64204F6E2F6F6666204318
:102A30006F6D6D616E6420746F204555524F207626
:102A4000616C766520310043757272656E74207614
:102A5000616C7665206E756D6265722000576972D3
:102A6000656C6573732056616C7665206E6F2E20E1
:102A7000006C61737420706C6F74206E6F203A204C
:102A80000020006C61737420706C6F742076766126
:102A90006C7665206C697374203A20004575726FFE
:102AA0002076616C766520494420776869636820E8
:102AB00069732053656E74203A00576972656C65BE
:102AC00073732050756D702072782064617461207A
:102AD0003A200053656E64204F6E2F6F6666204368
:102AE0006F6D6D616E6420746F20776972656C65BF
:102AF00073732050756D70203100576972656C6575
:102B000073732070756D70206E6F2E200077697260
:102B1000656C6573732070756D7020617661696C8A
:102B200061626C6520373A2000776972656C657365
:102B3000732070756D7020617661696C61626C657F
:102B400020363A2000576972656C657373205075A2
:102B50006D7020466565646261636B206661696CB7
:102B6000005F6550554D505F4F525F454C45435493
:102B70005249434954595F52454C41544544005FC2
:102B80006550554D505F4F464600576972656C65FC
:102B900073732050756D7020466565646261636B68
:102BA000206661696C005F6550554D505F4F525F04
:102BB000454C4543545249434954595F52454C4151
:102BC000544544005F6550554D505F4F4E00776946
:102BD00072656C6573732070756D702061766169C4
:102BE0006C61626C6520343A2000776972656C65AF
:102BF00073732070756D7020617661696C61626CB1
:102C00006520342E313A20004944204E6F74206DE7
:102C100061746368656420776974682070756D708D
:102C2000207768696368206973207265706C6965D4
:102C300064203400776972656C6573732070756DFC
:102C4000702076616C7665204944207768696368F6
:102C50002069732053656E74203A00576972656C61
:102C60006573732050756D70207278206461746193
:102C7000203A2000776972656C6573732070756DFA
:102C80007020617661696C61626C6520313A200068
:102C900053656E64204F6E2F6F666620436F6D6DB7
:102CA000616E6420746F20776972656C6573732040
:102CB00050756D70203100576972656C65737320B3
:102CC00070756D70206E6F2E2000776C2031207033
:102CD000756D70207472696767657220343434349E
:102CE00034343434343434343434343434343434A4
:102CF000343434343434343400776C2031207075FB
:102D00006D702074726967676572203333333333B3
:102D10003333333333333333333333333333333383
:102D200033333300416C6C2076616C7665732073AD
:102D300075636365737366756C6C79204F4E2F4FA6
:102D40004646004575726F20466565646261636B37
:102D5000206661696C2F4E6F7420726563656976B9
:102D6000656420616E7920646174612066726F6DA4
:102D7000204575726F2076616C7665203000457550
:102D8000726F20466565646261636B206661696C81
:102D90002F4E6F7420726563656976656420616E7D
:102DA0007920646174612066726F6D204575726F61
:102DB0002076616C76652031004575726F2046651E
:102DC00065646261636B206661696C004944204EF2
:102DD0006F74206D6174636865642077697468201E
:102DE00076616C7665207768696368206973207204
:102DF00065706C696564004575726F2076616C76EC
:102E000065204944207768696368206973205365A9
:102E10006E74203A004575726F2076616C7665207D
:102E200072782064617461203A200053656E6420DA
:102E30004F6E2F6F666620436F6D6D616E642074F8
:102E40006F204555524F2076616C766520310043E6
:102E5000757272656E742076616C7665206E756D24
:102E60006265722000576972656C657373205661E4
:102E70006C7665206E6F2E200049727269676174EE
:102E8000696E6720457874726120706C6F74206E73
:102E90006F203A2000200076616C7665206C6973A3
:102EA00074203A2000457874726120706C6F742031
:102EB0006661696C7320746F2053746F700045787D
:102EC00074726120706C6F742053746F707300455E
:102ED0007874726120706C6F74206661696C207404
:102EE0006F2053746F707320666F6767657220621E
:102EF00061636B20757000457874726120706C6F2F
:102F0000742053746F707320666F676765722062F8
:102F100061636B20757000776C2070756D70207424
:102F2000726967676572203434343434343434342D
:102F300034343434343434343434343400547279E2
:102F400020746F2073746F7020457874726100650F
:102F50007874726120706C6F74206661696C732084
:102F6000746F206F6E00457874726120506C6F74BE
:102F7000204F4E00776C2070756D702074726967F9
:102F8000676572203333333333333333333333337F
:102F900033333333333333330054727920746F2037
:102FA000537461727420657874726120706C6F74F0
:102FB00000666F676765723A206661756C74206F92
:102FC000636375726500706C6F740074696D650081
:102FD000706C6F740074696D65006D656469756D02
:102FE00000705374617475730070537461747573F9
:102FF0000070537461747573004578747261205069
:103000006C6F742054696D6572204662207265731E
:10301000656E6420007374617475730073746174F9
:103020007573007374617475730073746174757370
:1030300000737461747573007374617475730070D8
:103040004E6F006F6E6520746F75636820666565EE
:10305000646261636B20726573656E642000625FF9
:10306000706861736500795F706861736500725F95
:1030700070686173650063757272656E745F746900
:103080006D650079656172006D6F6E7468006461D2
:1030900074650074687265655F706861736500705F
:1030A000756D705F6E756D0073635F72656D6169DC
:1030B0006E5F74696D650073635F696E6465780047
:1030C00073635F72656D61696E5F74696D650073CE
:1030D000635F696E6465780073635F72656D6169D3
:1030E0006E5F74696D650073635F696E6465780017
:1030F000706C6F7400706C6F740063757272656EC3
:10310000745472616E73666F726D6572006D6F6478
:1031100065007053746174757300705374617475D5
:103120007300705374617475730073746174757394
:1031300000737461747573007374617475730073D4
:10314000746174757300737461747573006F6E6568
:1031500020746F756368206F6E2E2E2E2E2E2E2EED
:103160002E2E2E2E2E2E2E2E2E2E2E2E2E2E007368
:103170007461747573006F6E6520746F7563682079
:103180006F66662E2E2E2E2E2E2E2E2E2E2E2E2EAE
:103190002E2E2E2E2E2E00704E6F006F6E65207418
:1031A0006F75636820666565646261636B00706C4F
:1031B0006F740074696D6500706C6F740074696D74
:1031C00065006D656469756D007053746174757325
:1031D0000070537461747573007053746174757307
:1031E0000070537461747573004578747261205077
:1031F0006C6F742054696D657220466200636F6461
:103200006573005F655055425F4555524F5F5641AB
:103210004C56455F444154410076616C76654F7071
:10322000656E00764261740076616C7665537461F8
:10323000747573005F655055425F4555524F5F5638
:10324000414C56455F444154410076426174006CE4
:10325000696768740068756D69646974790074657C
:103260006D706572617475726500736F696C5F74FF
:10327000656D7000736D3400736D3300736D3200D3
:10328000736D31007061636B65745F6964005F65C5
:103290005055425F4C4952415F4E4F44455F444157
:1032A000544100636F64657300706C6F7400706CE0
:1032B0006F740074696D650074696D65006D656497
:1032C00069756D0070537461747573005F65505556
:1032D000425F54494D45525F464545444241434B48
:1032E0000074657374007465737400636F64657350
:1032F00000706C6F74206D617463682E2E2E2E2EFC
:103300002E2E2E2E2E2E2E2E2E2E2E2E2E2E2E2EDD
:103310002E2E2E2E2E2E2E2E2E2E2E2E2E2E2E2ECD
:103320002E2E2E2E2E2E2E2E2E2E2E2E2E2E2E2EBD
:103330002E0073746174757300704E6F0043616C7E
:103340006962726174696F6E206F76657220727542
:103350006C65640043616C6962726174696F6E20B0
:10336000746F706963206765742066726F6D207377
:1033700065727665720043616C6962726174696F2F
:103380006E0053432053544152542046524F4D2017
:103390003A200054414E4B204475726174696F6E3F
:1033A0003A200054414E4B206F6E20616674657266
:1033B0003A200054414E4B204E4F3A200054414E8B
:1033C0004B20535441543A20005343204E554D2036
:1033D0003A20005343206F6E206F66662054696D5B
:1033E00065203A200053432053544154203A200092
:1033F000546E4F6600546E4F6E00546E4E6F005404
:103400006E5374004765742054616E6B5F5363683C
:103410006564756C652066726F6D205365727665A4
:10342000720053432053544154203A2000536353B5
:10343000746174005343206F6E206F666620546978
:103440006D65203A200053634F6E005343204E5564
:103450004D203A200053634E756D0053634F6666EE
:103460000053634F6E0053656E0053636865647567
:103470006C6520746F706963206765742066726F75
:103480006D20736572766572203A2000736D73202B
:10349000616C657274206F666600736D7320616C79
:1034A000657274206F6E00736D7300646576696376
:1034B000654E756D626572006661726D65724E75FE
:1034C0006D62657200666F7263652073746F702041
:1034D000726573756D6520746F706963203A2000A2
:1034E000666F7263652073746F7020746F706963A8
:1034F000203A2000726573756D652073636865649A
:10350000756C6520746F706963203A200070617576
:103510007365207363686564756C6520746F70698A
:1035200063203A2000504C4F545F4E554D00657853
:1035300074726120706C6F742064656C65746520B2
:10354000746F706963203A200053434845445F4ECE
:10355000554D007363686564756C6520706C6F749D
:103560002064656C65746520746F706963203A200F
:1035700000504C4F545F4E554D00706C6F7420647A
:10358000656C65746520746F706963203A200076FD
:10359000616C76652049443A200056414C564520DE
:1035A00064656C6574652066726F6D20506C6F7415
:1035B000206E6F2E3A200076616C76652049443A81
:1035C000200076616C7665204E4F3A200056414CC3
:1035D00056452044415441204745542046524F4DC2
:1035E00020534552564552007649640076616C7608
:1035F000652064656C65746520746F706963203A3A
:103600002000636F646500706C6F742073656C20BC
:103610003A20006D6178203A20006D696E203A20D2
:103620000073656C5F706C6F74006D6178006D6124
:1036300078006D696E006D696E0056414C564520EC
:103640004E4F203A2000457874726120506C6F74A0
:10365000204E756D6265722E3A200073656E736F31
:10366000722064617461206765742066726F6D20DA
:103670007365727665720076616C76652049443AAE
:10368000200056414C5645204E4F203A200076618E
:103690006C766520353A200076616C766520343A88
:1036A000200076616C766520333A200076616C7676
:1036B0006520323A200076616C766520313A200030
:1036C00053656E736F72204E6F2E3A200073656ED5
:1036D000736F722064617461206765742066726F15
:1036E0006D20736572766572006F704D6F64650052
:1036F00076616C76652033206F66206575726F2069
:10370000636F6E74726F6C6C65720076616C766557
:103710002032206F66206575726F20636F6E747241
:103720006F6C6C65720076616C76652031206F6617
:10373000206575726F20636F6E74726F6C6C65724A
:103740000076616C76652033206F66206575726F38
:1037500020636F6E74726F6C6C6572206E6577009B
:1037600076616C76652032206F66206575726F20F9
:10377000636F6E74726F6C6C6572206E6577007625
:10378000616C76652031206F66206575726F2063ED
:103790006F6E74726F6C6C6572206E6577007769FE
:1037A00072656C6573732070756D7020444154416F
:1037B000204745542046524F4D20534552564552BE
:1037C000006E65772076616C766520706F73697422
:1037D000696F6E200076616C7665206973206E6F6C
:1037E0007420696E20746865206C69737400736559
:1037F0006C6563742066726F6D206C6973740076FB
:10380000616C76652033206F66206575726F20636A
:103810006F6E74726F6C6C65720076616C76652089
:1038200032206F66206575726F20636F6E74726FE1
:103830006C6C65720076616C76652031206F662055
:103840006575726F20636F6E74726F6C6C65720059
:1038500076616C76652033206F66206575726F2007
:10386000636F6E74726F6C6C65720076616C7665F6
:103870002032206F66206575726F20636F6E7472E0
:103880006F6C6C65720076616C76652031206F66B6
:10389000206575726F20636F6E74726F6C6C6572E9
:1038A0000076616C76652033206F66206575726FD7
:1038B00020636F6E74726F6C6C65720076616C76EB
:1038C000652032206F66206575726F20636F6E749D
:1038D000726F6C6C65720076616C76652031206F5A
:1038E00066206575726F20636F6E74726F6C6C65A5
:1038F000720076616C76652033206F662065757284
:103900006F20636F6E74726F6C6C6572206E65777A
:103910000076616C76652032206F66206575726F67
:1039200020636F6E74726F6C6C6572206E657700C9
:1039300076616C76652031206F66206575726F2028
:10394000636F6E74726F6C6C6572206E6577007653
:10395000616C76652049443A200076616C7665207A
:103960004E4F3A200056414C564520444154412088
:103970004745542046524F4D20534552564552001C
:103980006E65772076616C766520706F73697469F7
:103990006F6E200076616C7665206973206E6F749F
:1039A00020696E20746865206C6973740073656C9F
:1039B0006563742066726F6D206C69737400766144
:1039C0006C76652033206F66206575726F20636F9B
:1039D0006E74726F6C6C65720076616C7665203205
:1039E000206F66206575726F20636F6E74726F6CE6
:1039F0006C65720076616C76652031206F6620659B
:103A000075726F20636F6E74726F6C6C6572007686
:103A1000616C76652033206F66206575726F206358
:103A20006F6E74726F6C6C65720076616C76652077
:103A300032206F66206575726F20636F6E74726FCF
:103A40006C6C65720076616C76652031206F662043
:103A50006575726F20636F6E74726F6C6C65720047
:103A600076616C7665350076616C766534007661DA
:103A70006C7665330076616C7665320076616C76C3
:103A8000653100704E6F0053657420636F65666624
:103A9000656369656E7420546F7069632066726F28
:103AA0006D20736572766572004972726967617420
:103AB000696E6720706C6F740050554D50205255E0
:103AC0004E2054494D4552007400704E6F0067659A
:103AD000742054494D45522066726F6D2073657293
:103AE0007665720047657420436F6E74726F6C6CFC
:103AF00065722069732072656769737465726564A5
:103B000020746F20536576657220546F706963006E
:103B10006D7174745F63616C6C6261636B5F667519
:103B20006E6374696F6E2032006D7174745F6361CF
:103B30006C6C6261636B5F66756E6374696F6E2037
:103B400031004C6F72612044617461205265636979
:103B500076656400416C6C2076616C7665732073C9
:103B600075636365737366756C6C79204F4E2F4F68
:103B70004646004575726F20466565646261636BF9
:103B8000206661696C2F4E6F74207265636569767B
:103B9000656420616E7920646174612066726F6D66
:103BA000204575726F2076616C7665203000457512
:103BB000726F20466565646261636B206661696C43
:103BC0002F4E6F7420726563656976656420616E3F
:103BD0007920646174612066726F6D204575726F23
:103BE0002076616C76652031004575726F204665E0
:103BF00065646261636B206661696C004944204EB4
:103C00006F74206D617463686564207769746820DF
:103C100076616C76652077686963682069732072C5
:103C200065706C696564004575726F2076616C76AD
:103C3000652049442077686963682069732053656B
:103C40006E74203A004575726F2076616C7665203F
:103C500072782064617461203A200053656E64209C
:103C60004F6E2F6F666620436F6D6D616E642074BA
:103C70006F204555524F2076616C766520310043A8
:103C8000757272656E742076616C7665206E756DE6
:103C90006265722000576972656C657373205661A6
:103CA0006C7665206E6F2E200049727269676174B0
:103CB000696E6720706C6F74206E6F203A20002050
:103CC0000076616C7665206C697374203A2000413F
:103CD0006C6C2076616C76657320737563636573B5
:103CE0007366756C6C79204F4E2F4F4646004575B4
:103CF000726F20466565646261636B206661696C02
:103D00002F4E6F7420726563656976656420616EFD
:103D10007920646174612066726F6D204575726FE1
:103D20002076616C76652030004575726F2046659F
:103D300065646261636B206661696C2F4E6F7420ED
:103D4000726563656976656420616E79206461746B
:103D5000612066726F6D204575726F2076616C769A
:103D6000652031004575726F204665656462616348
:103D70006B206661696C004944204E6F74206D6150
:103D8000746368656420776974682076616C766511
:103D9000207768696368206973207265706C696553
:103DA00064004575726F2076616C76652049442009
:103DB00077686963682069732053656E74203A00E0
:103DC0004575726F2076616C76652072782064612B
:103DD0007461203A200053656E64204F6E2F6F6629
:103DE0006620436F6D6D616E6420746F204555527F
:103DF0004F2076616C766520310043757272656E76
:103E0000742076616C7665206E756D626572200037
:103E1000576972656C6573732056616C7665206EA8
:103E20006F2E200049727269676174696E67207035
:103E30006C6F74206E6F203A2000200076616C76E3
:103E400065206C697374203A200076616C76652079
:103E50006661696C20746F206769766520666565A8
:103E6000646261636B284E6F74206C697374656E55
:103E7000696E67292E2E2E0076616C766520696446
:103E8000206E6F74206D61746368286265666F725E
:103E9000652073746172747429006661696C2074A2
:103EA0006F206F6666207468652076616C76652881
:103EB0007761732065616C696572206F6E6E290091
:103EC00054657374206F6E6C79205458206461744B
:103ED00061203A200053656E64204F6E2F6F666636
:103EE00020436F6D6D616E6420746F204555524F95
:103EF0002076616C7665203B00436865636B2076B5
:103F0000616C7665207468617420616C6C207661E8
:103F10006C76657320617265204F4646206F722073
:103F20006E6F740076616C7665206661696C2074D2
:103F30006F206F66662077686963682077617320F9
:103F4000616C7265616479206F6E0076616C766574
:103F5000206964206E6F74206D61746368286265E7
:103F6000666F726520737461727429006661696C92
:103F700020746F206F6666207468652076616C76A9
:103F800065287761732065616C696572206F6E29A1
:103F90000054657374206F6E6C79205458206461EE
:103FA0007461203A200053656E64204F6E2F6F6657
:103FB0006620436F6D6D616E6420746F20455552AD
:103FC0004F2076616C76652000436865636B2076D0
:103FD000616C7665207468617420616C6C20766118
:103FE0006C76657320617265204F4646206F7220A3
:103FF0006E6F740076616C7665206C6973742065F1
:104000006E746572200076616C7665206C697374DD
:10401000206973203A200076616C7665206C6973A4
:104020007420656E746572200076616C7665206C14
:10403000697374206973203A20004972726967615C
:1040400074696F6E206661696C20746F2053746FA1
:10405000700049727269676174696F6E2053746F82
:1040600070730049727269676174696F6E2053746E
:104070006F707300776C20312070756D70207472D2
:10408000696767657220323232323232323232320E
:1040900032323232323232323232323232005472D0
:1040A0007920746F2073746F702049727269676130
:1040B00074696F6E0049727269676174696F6E200E
:1040C0006661696C20537461727400497272696729
:1040D0006174696F6E205374617274004972726901
:1040E000676174696F6E206661696C2053746172D8
:1040F0007400776C20312070756D70207472696760
:10410000676572206661696C20746F206F6E00773E
:104110006C20312070756D702074726967676572EC
:10412000206F6E00776C20312070756D7020747276
:104130006967676572203131313131313131313167
:1041400031313131313131313131005472792074B2
:104150006F205374617274205468652049727269CB
:10416000676174696F6E004D6F64653A20536368D0
:104170006564756C6572202C204972726967617480
:10418000696F6E004D6F64653A20536368656475AE
:104190006C6572206D6F6465202C204F70657261B4
:1041A00074696F6E205374617274004D6F64653A68
:1041B0002054696D6572204D6F64652C206B696CAD
:1041C0006C20737769746368207468726F756768B0
:1041D00020617070004D6F64653A2054696D65729E
:1041E000204D6F64652C2049727269676174696F34
:1041F0006E2052656C61746564204661756C742034
:104200006F636375722033004D6F64653A205469A3
:104210006D6572204D6F64652C204972726967610B
:1042200074696F6E2052656C6174656420466175B7
:104230006C74206F636375722032004D6F64653A51
:104240002054696D6572204D6F64652C204972722F
:1042500069676174696F6E2052656C617465642072
:104260004661756C74206F636375722031004D6F09
:1042700064653A2054696D6572204D6F64652C2029
:1042800049727269676174696F6E2052656C6174FE
:104290006564204661756C74206F636375722030AD
:1042A000004D6F64653A2054696D6572204D6F64EE
:1042B00065202C2054696D65204F7665720050751D
:1042C0006D702052756E2054696D657220696E2084
:1042D00054696D6572203A20004D6F64653A205430
:1042E000696D6572204D6F6465202C2054696D6581
:1042F00072206D6F646520686173206265656E2051
:104300006661696C65642064756520746F206E6FEA
:10431000742073746172742073746F7020302E3146
:10432000004D6F64653A2054696D6572204D6F646D
:1043300065202C2054696D6572206D6F646520685E
:104340006173206265656E206661696C65642064D6
:10435000756520746F206E6F7420737461727420A1
:1043600073746F7020302E31004D6F64653A2054A5
:10437000696D6572204D6F6465202C2049727269E9
:10438000676174696F6E206661696C7320746F2059
:1043900073746F70206275742072756E20666F7210
:1043A000206E65787420706C6F7420004D6F6465AA
:1043B0003A54696D6572204D6F6465202C204F70F2
:1043C00065726174696F6E205374617274004D6F11
:1043D00064653A204175746F204D6F64652C206BC5
:1043E000696C6C20737769746368207468726F7588
:1043F00067682061707000666F67676572206F6E16
:104400002049727269676174696F6E2073746F708E
:1044100073004D6F64653A204175746F204D6F6471
:10442000652C49727269676174696F6E2052656CA0
:1044300061746564204661756C74206F6363757286
:10444000004D6F64653A204175746F204D6F64654F
:10445000202C20476F696E6720546F20537461725F
:1044600074004D6F64653A204175746F204D6F6420
:1044700065202C2049727269676174696F6E2066CD
:1044800061696C7320746F2073746F70004D6F647A
:10449000653A204175746F204D6F6465202C204F64
:1044A0007065726174696F6E205374617274004D2F
:1044B0006F64653A204D616E75616C202C204972E5
:1044C0007269676174696F6E206661696C732074CC
:1044D0006F2073746F70004D6F64653A204D616E8C
:1044E00075616C2073656C65637465642C20204F66
:1044F0007065726174696F6E2053746172740041EB
:1045000075746F204D6F64652073656C65637465A9
:1045100064005363686564756C65722073656C65CF
:1045200063746564004D616E75616C204D6F6465E8
:104530002073656C656374656400536368656475B6
:104540006C65722073656C6563746564004D616EA3
:1045500075616C204D6F64652073656C656374656F
:1045600064004D616E75616C204D6F6465207365EC
:104570006C6563746564007363686564756C65205D
:104580004175746F204D6F64652073656C6563744D
:104590006564005363686564756C65722073656C4F
:1045A00065637465640054696D6572204D6F646560
:1045B0002073656C65637465640054696D65722071
:1045C0004D6F64652073656C656374656400446158
:1045D0007461204C6F67676572204D6F646520734E
:1045E000656C6563746564007363686564756C65A8
:1045F000204175746F204D6F64652073656C656331
:10460000746564004D616E75616C204D6F6465204A
:1046100073656C65637465640000000A0B02090C25
:104620000D0E080703040100000000000000000058
:10463000000000000000000000000000000000007A
:104640000000000000121110000000000000000037
:104650000000000000000000000000000000000159
:104660000210202008081020401020408002010283
:10467000010804020101020408102040808040204B
:104680001008040201800402018040201008040286
:104690000108040201010204081020408001020404
:1046A00008102040800505050507050808080802D0
:1046B0000202020A0A0808040404040101010101BB
:1046C0000101010303030303030303040707070CAA
:1046D0000C0C0C0C0C0C0C02020202060606060660
:1046E0000606060B0B0B0B0B0B0B0B00002000231D
:1046F00000260029002C002F0032000001000003DA
:10470000010601090100002200250028002B002ECF
:10471000003100340002010000050108010B010016
:10472000002100240027002A002D00300033000162
:10473000010000040107010A017274049274044824
:10474000940478C40C72B4040266A5CF35D0E8D8BE
:104750009EDE11241FBECFEFD1E2DEBFCDBF00E051
:104760000CBF18E0A0E0B2E0E0E7F9ED01E00BBF1C
:1047700002C007900D92A83EB107D9F72AE1A8EE32
:10478000B8E001C01D92A23DB207E1F713E2C9EA09
:10479000D3E200E006C021970109802FFE010E94AC
:1047A00083E7C43AD10780E00807A9F70E94FF8198
:1047B0000C94B6EC0C940000DC01ED91FC910280AD
:1047C000F381E02D1994FF920F931F93CF93DF9302
:1047D000EC01F62E08811981C8010E949AECF816A6
:1047E00021F06F2DC8010E94A2ECCE01DF91CF9184
:1047F0001F910F91FF9008950F931F93CF93DF9315
:104800001F921F92CDB7DEB78B01FB0160819A83A7
:104810008983CE010196D7DFC8010F900F90DF91F9
:10482000CF911F910F910895EF92FF920F931F93D5
:10483000CF93DF931F921F92CDB7DEB784E4E82EAB
:1048400086E1F82E05E31EE0F70161917F011A83EE
:104850000983CE010196B7DF0F5F1F4F0933FEE0DA
:104860001F0791F784E496E10F900F90DF91CF91AD
:104870001F910F91FF90EF90089581E0089580912E
:1048800078108D3609F07CC080917710882309F468
:1048900056C080917C10863631F0873641F08536DF
:1048A00041F482E001C083E0809341162DC084E092
:1048B000FBCF82E08093411680915516813021F51F
:1048C00063EC78E08FE696E10E94BDD04AE050E0CC
:1048D00060917C108FE696E10E9439D18FE696E1D7
:1048E0000E94B8CE69EA78E08FE696E10E94BDD0DA
:1048F0004AE050E0609141168FE696E10E9439D17E
:104900008FE696E10E94B8CE80912416811146C0B0
:1049100080915516813051F46DE778E08FE696E18D
:104920000E94BDD08FE696E10E94B8CE83E08093CE
:10493000241664E276E180E39CE05EDF2FC081E034
:104940008093411680912416882309F448C08091F1
:104950005516813051F462E578E08FE696E10E94C9
:10496000BDD08FE696E10E94B8CE1092241664E284
:1049700076E180E39CE040DF85E00E941AAB0EC048
:1049800081E08093411680912416882341F1809123
:104990005516813051F761E478E0DFCF8091411600
:1049A0008230D8F080912416811132C08091551642
:1049B000813051F460E378E08FE696E10E94BDD04B
:1049C0008FE696E10E94B8CE83E08093241664E2DD
:1049D00076E180E39CE010CF08958130C9F48091A6
:1049E00024168823A9F080915516813051F46FE187
:1049F00078E08FE696E10E94BDD08FE696E10E94B6
:104A0000B8CE1092241664E276E180E39CE0F4CE06
:104A10000895E0E1F0E125E130E180E0919191112C
:104A20008F5F2E173F07D1F78093EC08823018F480
:104A300081E080939A0C8091BA0B9091BB0B8134EA
:104A4000984330F080E498E39093BB0B8093BA0BCB
:104A50008091BC0B9091BD0B8538934030F084E879
:104A600093E09093BD0B8093BC0B8091EB0889324F
:104A700020F01092EB08D8DE03C08F5F8093EB0824
:104A800080910C10893609F038C180918C158230E4
:104A900009F4F9C080914E1690914F16892B09F0B8
:104AA0002CC168EE72E08FE696E10E94BDD0409185
:104AB00044165091451660914616709147162AE0AB
:104AC00030E08FE696E10E9427D18FE696E10E94C2
:104AD000B9D08FE696E10E94B8CE8091BA0B909142
:104AE000BB0BA0E0B0E04091441650914516609198
:104AF00046167091471684179507A607B70708F062
:104B0000FCC080912410813009F068C08091481663
:104B100090914916892BF9F080915516813051F406
:104B200066ED72E08FE696E10E94BDD08FE696E1D9
:104B30000E94B8CE80916315811113C18091BA0B88
:104B40009091BB0B892B09F40CC18091191681300F
:104B500009F0D3C006C180918C15833049F480914F
:104B60007D1590917E15886090937E1580937D15BC
:104B700084E00E941DC580912410882309F47DC023
:104B800080917D1590917E15906290937E15809313
:104B90007D1584E080931B1682E08093251010928F
:104BA00024101092EA081092E90891E09093E80826
:104BB00080919A0C2091EC08821758F090939A0CEF
:104BC00010924416109245161092461610924716EF
:104BD00003C08F5F80939A0C27DE4FC090910B101B
:104BE0009111BDC02091BA0B3091BB0B232B09F45E
:104BF000B6C09091D515911103C0882309F481C0E6
:104C000080914116813009F01AC1809119168130C6
:104C100009F442C180918C15853009F42DC184E0DE
:104C20000E9461C4882309F4DAC08091551681304E
:104C300051F462EB72E08FE696E10E94BDD08FE600
:104C400096E10E94B8CE8091BC0B9091BD0B9093E1
:104C500049168093481680917D1590917E1590623B
:104C600090937E1580937D1584E080931B1682E0DF
:104C70008093251081E0809324106AE97CE08FE323
:104C80009EE0BADD3AC08091481690914916892B72
:104C900021F4809124108823A1F1109249161092DA
:104CA000481684E00E941DC580912410882309F1D4
:104CB00080917D1590917E15906290937E158093E2
:104CC0007D1584E080931B1682E08093251010925E
:104CD00024101092EA081092E90881E08093E80815
:104CE00010924416109245161092461610924716CE
:104CF0009BDD109251161092501680912410811154
:104D00001DC08091E8088823C9F08091E90890913E
:104D1000EA088D33910568F01092EA081092E908CC
:104D200064E080E00E94D2B5882341F01092E80848
:104D300005C001969093EA088093E90880919A0C47
:104D4000882321F09091EC08981740F481E080933B
:104D50009A0C6AE97CE08FE39EE04ECD089581E0F5
:104D600008956AE97CE08FE39EE046DD8091551668
:104D7000813051F464EC72E08FE696E10E94BDD080
:104D80008FE696E10E94B8CE80916315882331F0BA
:104D900088E592E090934F1680934E1684E00E942F
:104DA0001DC580912410882309F4ABCF80917D1517
:104DB00090917E15906290937E1580937D1584E08E
:104DC00080931B1682E0809325101092241010927D
:104DD000EA081092E90881E08093E8082EC088E58F
:104DE00092E090934F1680934E1684E00E941DC56A
:104DF00080912410882309F484CF80917D159091AF
:104E00007E15906290937E1580937D1584E080934B
:104E10001B1682E080932510109224101092EA084D
:104E20001092E90881E08093E808109244161092ED
:104E300045161092461610924716F6DC5ECF823069
:104E400008F4E8CE90E002972BE0289FF001299F1C
:104E5000F00D1124EA53F44F808591859C01237055
:104E6000332723303105C1F482FF16C0887B92704E
:104E7000892B09F4CFCE10C08091F4089091F508E9
:104E8000892B09F4CCCE8091F4089091F5084496D2
:104E900090934F1680934E1680E008952F923F9284
:104EA0004F925F926F927F928F929F92AF92BF923A
:104EB000CF92DF92EF92FF920F931F93CF93DF93E6
:104EC000CDB7DEB7E8970FB6F894DEBF0FBECDBF03
:104ED000482E762E88E0E3E6F2E0DE019B96019014
:104EE0000D928A95E1F79E012F5F3F4F19018AE2EB
:104EF000D9011D928A95E9F70DEFA02E0CE0B02E96
:104F000021E53DE06501F12CF601808181508E3074
:104F1000D8F5D60165E089818823F9F010E070E0CA
:104F2000872F90E0A101480F591FFA0150815523A6
:104F3000D1F011964C911197442369F0541799F0D0
:104F400042E050E04C0F5D1F840F951FFC018081F3
:104F5000811101C011E07F5FE3CF11968C91119711
:104F6000811103C00DC0112359F011964C91119776
:104F70004D3030F4C1018F0D911DFC014083F3943D
:104F8000615011966111C7CFF6E0CF0ED11C2C15E0
:104F90003D0509F0B9CF80915516813059F56EE085
:104FA00078E08FE696E10E94BDD08FE696E10E9400
:104FB000B8CEE12C81010E0D111DD8018C918823F2
:104FC000C9F06CEF77E08FE696E10E94BDD0F80162
:104FD000608170E04AE050E08FE696E10E94B3D134
:104FE0008FE696E10E94B9D08FE696E10E94B8CE96
:104FF000E394E0CFF3E07F127DC01FE9C12E1FE0F4
:10500000D12E29E131E1D60111968C911197855667
:105010008E30D0F565E089818823F9F010E070E0EA
:10502000872F90E0A101480F591FFA0150815523A5
:10503000D1F015964C911597442369F0541799F0C7
:1050400042E050E04C0F5D1F840F951FFC018081F2
:10505000811101C011E07F5FE3CF15968C91159708
:10506000811103C00DC0112359F015964C9115976D
:105070004D3030F4C1018F0D911DFC014083F3943C
:10508000615011966111C7CFFBE1CF0ED11C2C15D9
:105090003D0509F0B8CF809155168130E1F56BEEF2
:1050A00077E08FE696E10E94BDD08FE696E10E9400
:1050B000B8CEF12C81010F0D111DD8018C918823E0
:1050C000E1F069ED77E08FE696E10E94BDD0F8014E
:1050D000608170E04AE050E08FE696E10E94B3D133
:1050E0008FE696E10E94B9D08FE696E10E94B8CE95
:1050F000F394E0CFA5E07A1266C180915516813015
:1051000051F46EEA77E08FE696E10E94BDD08FE61B
:1051100096E10E94B8CE07EE1BE0B4E0CB2ED12C76
:10512000E12CF12CD8018C91882329F1512C40E0FD
:105130003AC09E01255D3F4F3CAB2BAB9924939425
:10514000A7014F5F5F4F5EAB4DAB5DE05E9DC00161
:105150005F9D900D1124DC01A951B44FB8AFAFABE6
:10516000EBA9FCA98191FCABEBAB852149F59394AC
:10517000F4E09F12F5CFBFEFEB1AFB0A035F1F4F5E
:10518000E3E0CE0ED11CF3E0EF16F10459F6D2C0E5
:105190002817390711F45081552A01963196C816FF
:1051A000D906B1F74F5FF101E40FF11D20812223F1
:1051B00009F4BFCFC6010397FE01BB9630E0E8CFEC
:1051C000812C8394ACEAB5E1E4E11D92EA95E9F71C
:1051D000D80111968C9111978093AC1512968C91F1
:1051E00012978093AD1513968C9113978093AE15FB
:1051F00014968C9114978093AF1515968C911597F2
:105200008093B01516968C918093B115B2E0B0934F
:10521000B21580918C158093B4159092B71580913A
:105220005516813039F56BE877E08FE696E10E94FC
:105230008CD04AE050E06DA97EA98FE696E10E94ED
:10524000B9D18FE696E10E94B8CE66E777E08FE6A7
:1052500096E10E948CD04CE050E06CEA75E18FE65C
:1052600096E1AADA8FE696E10E94B9D08FE696E140
:105270000E94B8CE0E9417678CE00E94116688EBEE
:105280009BE00E943C64882309F441C00E940A64A8
:1052900090E080E0282F30E0EFA9F8ADE20FF31F97
:1052A000D901A054BA4E41812C91421711F090E0DF
:1052B00086E09F5F8F5F863068F39630C9F421E007
:1052C000F80123872091C81522878091C91590E0A5
:1052D000982F88273091CA15832B918780872223A6
:1052E000E9F0809155168130D9F461E577E006C088
:1052F000809155168130A1F460E377E08FE696E166
:105300000E94BDD08FE696E10E94B8CE09C0809180
:105310005516813029F469E077E0F0CF73E0872EED
:1053200068EE73E080E090E00E9470D333E0831277
:1053300048CF1DCF43E0741611F40C94E13155E0D1
:10534000751241C06EE0F62E00E010E0F501E00FAE
:10535000F11FE181ED3068F0F0E0E851FA4E61E0D4
:1053600080810E94A9D468EC70E080E090E00E9407
:1053700070D30F5F1F4F0530110541F7FA9486E097
:10538000A80EB11CF110E0CF8091F10F883611F01A
:105390000C94E13105EF1FE0D801ED918D01ED3066
:1053A00068F0F0E0E851FA4E61E080810E94A9D4F3
:1053B00068EC70E080E090E00E9470D3BFE00A3FAC
:1053C0001B0751F7FEC7E1E07E1221C180915516FF
:1053D000813051F46EED76E08FE696E10E94BDD00B
:1053E0008FE696E10E94B8CE07EE1BE044E0C42EA3
:1053F000D12CE12CF12C54E1852ED8011A968C91F8
:10540000882329F1912C40E03AC09E01255D3F4F51
:105410003CAB2BABBB24B394A7014F5F5F4F5EAB9C
:105420004DAB5DE05E9DC0015F9D900D1124DC01E0
:10543000A951B44FB8AFAFABEBA9FCA98191FCABBC
:10544000EBAB892149F5B394F4E0BF12F5CFBFEF80
:10545000EB1AFB0A035F1F4FE3E0CE0ED11CF4E012
:10546000EF16F10451F6D7C02817390711F450810F
:10547000952A01963196C816D906B1F74F5FF1010A
:10548000E40FF11D2081222309F4BFCFC601039749
:10549000FE01BB9630E0E8CFA12C55245394A39491
:1054A000ACEAB5E1E82D1D92EA95E9F7D80111962D
:1054B0008C9111978093AC1512968C9112978093D2
:1054C000AD1513968C9113978093AE1514968C910D
:1054D00014978093AF1515968C9115978093B015FE
:1054E00016968C918093B115B2E0B093B21580916D
:1054F0008C158093B415B092B715809155168130F4
:1055000039F56AEB76E08FE696E10E948CD04AE0AE
:1055100050E06DA97EA98FE696E10E94B9D18FE691
:1055200096E10E94B8CE65EA76E08FE696E10E94A9
:105530008CD046E050E06CEA75E18FE696E13CD90C
:105540008FE696E10E94B9D08FE696E10E94B8CE30
:105550000E9417678CE00E94116688EB9BE00E9416
:105560003C64882309F440C00E940A6490E080E013
:10557000282F30E0EFA9F8ADE20FF31FD901A054B6
:10558000BA4E41812C91421711F090E086E09F5F66
:105590008F5F863068F39630C1F4F801538620910E
:1055A000C81522878091C91590E0982F88273091DF
:1055B000CA15832B918780872223E9F080915516A5
:1055C0008130D9F46FE776E006C0809155168130BE
:1055D000A1F46DE576E08FE696E10E94BDD08FE6FE
:1055E00096E10E94B8CE09C080915516813029F409
:1055F0006FE276E0F0CF83E0A82E68EE73E080E003
:1056000090E00E9470D3F3E0AF1249CF1CCF21E0AD
:10561000271508F4D5C6809155163EE0341508F4D8
:1056200095C346E0449E800111248130D9F561E2A2
:1056300076E08FE696E10E94BDD08FE696E10E946B
:10564000B8CEE12CF12CC42CD12C51E0C51AD108D4
:10565000F701E00FF11FE850F34F4AE050E060819E
:105660008FE696E10E9433D16FE176E08FE696E116
:105670000E948CD08FEFE81AF80A95E0E916F10441
:1056800039F764E076E08FE696E10E948CD04AE03C
:1056900050E0B6018FE696E10E94B9D18FE696E11F
:1056A0000E94B8CE0850134FB5E02B2E80E0E42CBA
:1056B000F12CA1E0EA1AF10855245394972D952571
:1056C00091709DAB71101FC02091D5154216C9F085
:1056D0002223C9F0F8019081F6E02F9F9001112458
:1056E00040E050E080E0FA01E20FF31FE850F34F92
:1056F0006081961301C081E04F5F5F4F45305105D7
:1057000091F7811113C3D801DC908FEF8D0D8C3090
:1057100008F0E0C2B3E0BD15A8F48D2D63E00E944F
:1057200012E76BEAD69E612D1124992331F066951C
:10573000CC24C394C60ED92E07C0C62EC694A3E0AF
:10574000DA2E02C0CC24C39480915516813089F49E
:1057500060EF75E08FE696E10E948CD04AE050E061
:105760006C2D8FE696E10E9439D18FE696E10E947A
:10577000B8CE0E94066481110E940A6484E1ECEABA
:10578000F5E1DF011D928A95E9F76C2D70E061501B
:105790007109B7E0B69FC001B79F900D11248B59D6
:1057A0009A4EFC01EC58FF4F20812093AC153196A6
:1057B00020812093AD15319620812093AE1531962E
:1057C00020812093AF15319620812093B01531961A
:1057D00020812093B11522E02093B2157092B31569
:1057E00020918C152093B41520917B152093B6152C
:1057F000D092B71540E050E0B42EC12CD12CEDE092
:10580000E49FB001E59F700D11246951744F2D2D57
:1058100030E0FB01E20FF31F280F391FD901AC580C
:10582000BF4F31812C91321719F0C12CF6E0DF2ED9
:10583000C394D394F5E0FD1550F726E0C21631F07D
:105840004F5F5F4F44305105B9F601C06B2C80911A
:105850005516813089F46AED75E08FE696E10E9475
:105860008CD04AE050E0662D8FE696E10E9433D15D
:105870008FE696E10E94B8CE3DE0639E4001112480
:10588000312C4DE0469DC00111249C012951344F1B
:10589000D9011B96BCABABAB6901B8E0CB0ED11CF8
:1058A000FC01E851F44F5F010E94F5708823A1F0DC
:1058B0000E944164882381F0E7E8F1E10190002033
:1058C000E9F73197AF014758514121E067E871E1AD
:1058D00089E191E10E94679133948091551681305E
:1058E00051F466EB75E08FE696E10E94BDD08FE63D
:1058F00096E10E94B8CE0E9417678CE00E94116664
:1059000088EB9BE00E943C64882309F47FC10E94DD
:105910000A6490915516882309F420C1913059F5F5
:1059200060EA75E08FE696E10E948CD04AE050E094
:1059300060EC75E18FE696E10E94DC238FE696E14C
:105940000E94B9D08FE696E10E94B8CE62E875E079
:105950008FE696E10E948CD047E050E0B5018FE6DB
:1059600096E10E9462D08FE696E10E94B9D08FE660
:1059700096E10E94B8CEA0ECB5E180E090E02D91D8
:10598000F401E80FF91FE951F44F3181321709F49E
:105990007AC080915516813051F467E575E08FE645
:1059A00096E10E94BDD08FE696E10E94B8CEF2E06B
:1059B0003F16A9F0ABA9BCA95C928091C91590E0F3
:1059C000982F88272091CA15822BF6019183808316
:1059D0008091C81578125DC073E0372E71C186E0E2
:1059E0008093631584E690E090939C0C80939B0CCD
:1059F00080915516813031F46AE375E08FE696E1C7
:105A00000E94BDD080911C0C90911D0CA0911E0C89
:105A1000B0911F0CA06280931C0C90931D0CA0935E
:105A20001E0CB0931F0C6092171680917D159091FB
:105A30007E15826090937E1580937D1586E08E9D05
:105A400080018F9D100D1124E12CF12CF801EE0D39
:105A5000FF1DE350F34FE181ED3068F0F0E0E851D5
:105A6000FA4E61E080810E94A9D468EC70E080E089
:105A700090E00E9470D3FFEFEF1AFF0A25E0E216D4
:105A8000F10421F74EC401968630910509F077CFD5
:105A900091CF80915516813051F467E275E08FE621
:105AA00096E10E94BDD08FE696E10E94B8CE32E02A
:105AB000331206C186E08093631584E690E09093EC
:105AC0009C0C80939B0C80915516813031F46AE0D8
:105AD00075E08FE696E10E94BDD080911C0C9091FC
